:020000040000FA
:10000000600200206D0200008102000083020000F7
:10001000850200008502000085020000000000004B
:100020000000000000000000000000008502000049
:10003000850200000000000085020000850200002B
:100040008502000085020000850200008502000094
:100050008502000085020000850200008502000084
:100060008502000085020000850200008502000074
:100070008502000085020000850200008502000064
:100080008502000085020000850200008502000054
:100090008502000085020000850200008502000044
:1000A0008502000085020000850200008502000034
:1000B0008502000085020000850200008502000024
:1000C0008502000085020000850200008502000014
:1000D0008502000085020000850200008502000004
:1000E0008502000000000000000000008502000002
:1000F00085020000850200008502000085020000E4
:1001000085020000850200008502000085020000D3
:1001100000000000000000008502000085020000D1
:1001200085020000850200008502000085020000B3
:1001300085020000850200008502000085020000A3
:1001400000000000000000000000000000000000AF
:100150008502000085020000850200008502000083
:10016000000000000000000000000000000000008F
:10017000000000000000000000000000000000007F
:10018000000000000000000000000000000000006F
:10019000000000000000000000000000000000005F
:1001A000000000000000000000000000000000004F
:1001B0008502000085020000850200008502000023
:1001C0008502000085020000850200008502000013
:1001D0008502000085020000850200008502000003
:1001E000850200008502000085020000000000007A
:1001F000000000008502000085020000850200006A
:1002000085020000850200000000000000000000E0
:1002100085020000850200008502000085020000C2
:1002200085020000850200008502000085020000B2
:1002300085020000850200008502000085020000A2
:100240008502000085020000850200008502000092
:100250008502000085020000850200008502000082
:100260008502000085020000850200004EF68850DD
:10027000CEF20000016841F47001016000F004B8A2
:10028000FEE7FEE7FEE7000000F002F800F02EF8BF
:100290000AA090E8000C82448344AAF10107DA45E1
:1002A00001D100F023F8AFF2090EBAE80F0013F005
:1002B000010F18BFFB1A43F0010318472003000089
:1002C000300300000023002400250026103A28BF38
:1002D00078C1FBD8520728BF30C148BF0B607047B8
:1002E0001FB500F075F91FBD10B510BD00F01DF869
:1002F0001146FFF7F5FF00F03DF900F03BF803B4BD
:10030000FFF7F2FF03BC00F043F800000248034986
:10031000014A034B7047000060000020600200208B
:1003200060000020704770477047754600F02CF859
:10033000AE4605006946534620F00700854618B0D2
:1003400020B5FFF7E3FFBDE820404FF000064FF077
:1003500000074FF000084FF0000B21F00701AC46FA
:10036000ACE8C009ACE8C009ACE8C009ACE8C00919
:100370008D46704710B50446AFF300802046BDE8B7
:100380001040FFF7BCBF000000487047000000208D
:1003900001491820ABBEFEE7260002007047D0F8E6
:1003A000003412F0010F14BF0B438B43C0F800342C
:1003B00012F0020FD0F8202414BF114322EA0101E9
:1003C000C0F8201470472DE9F00301264FF0000C0F
:1003D0000325C2F3411706FA0CF40C4211D0D0F8F1
:1003E000C48F4FEA4C0405FA04F928EA0908C0F85A
:1003F000C48FD0F8C48F07FA04F448EA0404C0F8A4
:10040000C44F0CF1010C0CF0FF0CBCF1080FE2D34F
:10041000D0F800C512F0010F14BF4CEA010C2CEA11
:10042000010CC0F800C5D0F804C512F0020F14BFCB
:100430004CEA010C2CEA010CC0F804C5D0F808C540
:1004400012F0040F14BF4CEA010C2CEA010CC0F8A6
:1004500008C5D0F818C512F0080F14BF4CEA010CFB
:100460002CEA010CC0F818C512F0100FD0F83C258A
:1004700014BF0A438A43C0F83C25D0F80C2513F07A
:10048000010F14BF0A438A43C0F80C25D0F8102589
:1004900013F0020F14BF0A438A43C0F81025D0F8A6
:1004A000142513F0040F14BF0A438A43C0F814251F
:1004B000D0F81C2513F0080F14BF0A438A43C0F874
:1004C0001C25D0F8442513F4007F14BF0A438A4347
:1004D000C0F84425D0F8402513F4407F14BF0A43E8
:1004E0008A43C0F84025D0F82825002B0CBF1143C3
:1004F00022EA0101C0F82815BDE8F003704730B5C5
:100500000C46054608230122FFF75DFF21462846D9
:10051000BDE830400122FFF742BF40F8212070477C
:10052000C0F307230749C0B2194401F07043C1F377
:10053000130143EA411141EA800040F000700122BA
:100540000260704700E60F40C0F307220849C0B2BE
:10055000114401F07042C1F3130142EA411141EA32
:10056000800040F000700068002818BF012070472C
:1005700000EA0F40144C08B52046FFF7D1FF204693
:10058000FFF7E2FF0028FAD0104E08213046FFF7AF
:10059000B6FF002549F64044082211463046FFF7D1
:1005A000BCFF00950098401C0090A042FAD30022A6
:1005B00008213046FFF7B1FF00950098401C0090DD
:1005C000A042FAD3E8E70000050800F0005002401E
:1005D0004FF04070E1EE100A70470000EC0500009B
:0C05E0000000002060020000C4020000C7
:040000050000026D88
:00000001FF
