:020000040000FA
:10000000D00800206D020000810200008302000081
:10001000850200008502000085020000000000004B
:100020000000000000000000000000008502000049
:10003000850200000000000085020000850200002B
:100040008502000085020000850200008502000094
:100050008502000085020000850200008502000084
:100060008502000085020000850200008502000074
:100070008502000085020000850200008502000064
:100080008502000085020000850200008502000054
:100090008502000085020000850200008502000044
:1000A0008502000085020000850200008502000034
:1000B0008502000085020000850200008502000024
:1000C0008502000085020000850200008502000014
:1000D0008502000085020000850200008502000004
:1000E0008502000000000000000000008502000002
:1000F00085020000850200008502000085020000E4
:1001000085020000850200008502000085020000D3
:1001100000000000000000008502000085020000D1
:1001200085020000850200008502000085020000B3
:1001300085020000850200008502000085020000A3
:1001400000000000000000000000000000000000AF
:100150008502000085020000850200008502000083
:10016000000000000000000000000000000000008F
:10017000000000000000000000000000000000007F
:10018000000000000000000000000000000000006F
:10019000000000000000000000000000000000005F
:1001A000000000000000000000000000000000004F
:1001B0008502000085020000850200008502000023
:1001C0008502000085020000850200008502000013
:1001D0008502000085020000850200008502000003
:1001E000850200008502000085020000000000007A
:1001F000000000008502000085020000850200006A
:1002000085020000850200000000000000000000E0
:1002100085020000850200008502000085020000C2
:1002200085020000850200008502000085020000B2
:1002300085020000850200008502000085020000A2
:100240008502000085020000850200008502000092
:100250008502000085020000850200008502000082
:100260008502000085020000850200004EF68850DD
:10027000CEF20000016841F47001016000F004B8A2
:10028000FEE7FEE7FEE7000000F002F800F04CF8A1
:100290000AA090E8000C82448344AAF10107DA45E1
:1002A00001D100F041F8AFF2090EBAE80F0013F0E7
:1002B000010F18BFFB1A43F001031847BC090000E7
:1002C000DC0900000A4410F8014B14F00F0508BFC8
:1002D00010F8015B240908BF10F8014B6D1E05D012
:1002E00010F8013B6D1E01F8013BF9D1641E03D0EB
:1002F000641E01F8015BFBD19142E4D3704700001A
:100300000023002400250026103A28BF78C1FBD81E
:10031000520728BF30C148BF0B6070471FB500F0BF
:100320000BFB1FBD10B510BD00F021F81146FFF703
:10033000F5FF00F0BFFA00F03FF803B4FFF7F2FF5B
:1003400003BC00F047F800000138FDD17047000001
:1003500002480349014A034B70470000D0060020C1
:10036000D0080020D00600207047704770477546BF
:1003700000F02CF8AE4605006946534620F0070011
:10038000854618B020B5FFF7E3FFBDE820404FF0E9
:1003900000064FF000074FF000084FF0000B21F06F
:1003A0000701AC46ACE8C009ACE8C009ACE8C0093C
:1003B000ACE8C0098D46704710B50446AFF3008025
:1003C0002046BDE81040FFF7B8BF00000048704766
:1003D0006C06002001491820ABBEFEE72600020093
:1003E0007047D0F8003412F0010F14BF0B438B4359
:1003F000C0F8003412F0020FD0F8202414BF1143CB
:1004000022EA0101C0F820147047C0F81C1470479C
:10041000D0F8102422EA0101C0F810147047D0F877
:1004200010241143C0F81014704770B50C4600F04A
:1004300019FA0546214600F035F92846BDE8704016
:1004400000F0EAB8002914BFD0F81804D0F814045A
:100450007047D0F8083412F0010F14BF0B438B43E0
:10046000C0F80834D0F8043412F0020F14BF0B4364
:100470008B43C0F80434D0F80C3412F0040F14BFCE
:10048000194323EA0101C0F80C14D0F8381512F40E
:10049000803F14BF41F0010121F00101C0F838157F
:1004A00070472DE9F00301264FF0000C0325C2F33D
:1004B000411706FA0CF40C4211D0D0F8C48F4FEA61
:1004C0004C0405FA04F928EA0908C0F8C48FD0F8EA
:1004D000C48F07FA04F448EA0404C0F8C44F0CF1CE
:1004E000010C0CF0FF0CBCF1080FE2D3D0F800C5F2
:1004F00012F0010F14BF4CEA010C2CEA010CC0F8F9
:1005000000C5D0F804C512F0020F14BF4CEA010C6C
:100510002CEA010CC0F804C5D0F808C512F0040F8D
:1005200014BF4CEA010C2CEA010CC0F808C5D0F845
:1005300018C512F0080F14BF4CEA010C2CEA010C8C
:10054000C0F818C512F0100FD0F83C2514BF0A43AC
:100550008A43C0F83C25D0F80C2513F0010F14BFD6
:100560000A438A43C0F80C25D0F8102513F0020F77
:1005700014BF0A438A43C0F81025D0F8142513F09D
:10058000040F14BF0A438A43C0F81425D0F81C2571
:1005900013F0080F14BF0A438A43C0F81C25D0F893
:1005A000442513F4007F14BF0A438A43C0F844254E
:1005B000D0F8402513F4407F14BF0A438A43C0F8A3
:1005C0004025D0F82825002B0CBF114322EA010159
:1005D000C0F82815BDE8F003704730B50C46054655
:1005E0000022FFF7FEFE21462846BDE830400823E2
:1005F0000122FFF756BF30B50C46054608230122FD
:10060000FFF74FFF21462846BDE830400122FFF7A3
:10061000E8BE40F8212070471649042804BF086846
:1006200040F4803018D0052804BF086840F400303A
:1006300012D0062812D00F2815D0102838BF7047C6
:10064000103800F01F01012202FA01F142090A48A4
:1006500050F822000160704708607047086840F455
:100660008020086070474FF0E020016941F00201EE
:100670000161704724ED00E0280C0000084A20F0DA
:100680000303D25813688007C00E4FF0FF0C0CFA1A
:1006900000FC23EA0C0301FA00F0184310607047D5
:1006A0008C0B000030B40A4D2A680A4B9A421CBFDA
:1006B000D5F800C0002207D05CF8224043F8224061
:1006C000521C9B2AF8D32B6043F8201030BC704793
:1006D00008ED00E00004002010B50D4C002120467C
:1006E000FFF7B0FEC00611D510212046FFF78DFEA2
:1006F00008490868401C0860B0F5C87F06D1002290
:10070000BDE8104010210448FFF783BF10BD000072
:10071000005002400000002000400240434B30B433
:10072000196E1A6F21F4800141F4006142F40064F3
:1007300019661C6721EA000212F0010F14D060F064
:10074000010211409A159A651966D3F850C0D20279
:100750001CF4807F08D1521E04BF30BC7047D3F810
:1007600050C01CF4807FF6D021F4FE6100F4FE62DC
:100770001143DFF8BCC024F0700222F0004200EA0E
:100780000C0C4CEA020200F0080C42EACC0219669A
:100790001A6700F4005C21F4005122F400524CEA84
:1007A00001014CEA02024FF0400CC3F858C012F0AD
:1007B000004F08BF19661A6718BF196621F00101BA
:1007C000DFF870C021F0F86100EA0C0C4CEA01017E
:1007D00022F0FC5200F0FC5C4CEA020210F0804F68
:1007E00008BF22F0804209D0DFF84CC022F480021A
:1007F00000EA0C0C41F480014CEA020210F4006F94
:1008000008BF4FF400400AD1D3F868C11CF0010FB3
:1008100001D1401EF8D121F4006122F40062196672
:100820001A6730BC1020FFF78FBD000000E00F40BA
:10083000300000800100C00700004040C0F30723E3
:100840000749C0B2194401F07043C1F3130143EAF0
:10085000411141EA800040F00070012202607047BF
:1008600000E60F4010490F4A18230968DFF83CC022
:1008700001EA0C01A1F1805CBCF5202C04BF0C4AFC
:100880001B230021002B0AD952F831C0844503D123
:1008900002EBC10040687047491C9942F4D3002024
:1008A000704700004409000000E00F400000FF70A6
:1008B000040A00001B48FFF731FF1B48FFF7BEFF8B
:1008C0001948401EFFF7BAFF184C10212046FFF7C9
:1008D00084FE174D10212846FFF78DFE00221021BF
:1008E0002846FFF796FE10212046FFF791FD1021C4
:1008F0002046FFF78AFD042210212046FFF7A9FDBC
:100900000C492046FFF791FD00211420FFF7B6FEA9
:1009100010212046FFF783FD102211462846FFF7DD
:1009200078FEFEE7403D8007050800F000500240D9
:1009300000400240D90600004FF04070E1EE100A7E
:10094000704700000040004010000000008005409B
:100950001000000000500040110000000090054011
:1009600011000000006000401200000000A00540DF
:1009700012000000007000401300000000B00540AD
:1009800013000000004002401400000000C00540B9
:1009900014000000005002402E00000000D005406E
:1009A0002E000000006002402F00000000E0054023
:1009B0002F000000007002403000000000F00540F1
:1009C0003000000000D00340460000000000064058
:1009D00046000000001006404700000000200640CE
:1009E00048000000003006407F0000000040064044
:1009F00080000000005006408400000000600640B7
:100A00008C00000000400040100000000080054005
:100A10001000000000500040110000000090054050
:100A200011000000006000401200000000A005401E
:100A300012000000007000401300000000B00540EC
:100A400013000000004002401400000000C00540F8
:100A500014000000005002402E00000000D00540AD
:100A60002E000000006002402F00000000E0054062
:100A70002F000000007002403000000000F0054030
:100A80003000000000D0034043000000000006409A
:100A90004300000000100640440000000020064013
:100AA00045000000003006405800000000400640AD
:100AB00059000000005006405C0000000060064045
:100AC00064000000007006406C00000000800640DA
:100AD0006D000000009006407F00000000400040D4
:100AE000008005400050004000900540006000403C
:100AF00000A005400070004000B0054000400240EA
:100B000000C005400050024000D005400060024097
:100B100000E005400070024000F0054000D00340B6
:100B2000000006400010064000100640002006406D
:100B300000200640003006400030064000400640DD
:100B4000004006400050064000500640006006404D
:100B500000600640007006400070064000800640BD
:100B6000008006400090064000900640000700000C
:100B70000006000000050000000400000003000063
:100B80000002000000010000000000000000000062
:100B900018ED00E01CED00E020ED00E000E400E0D6
:100BA00004E400E008E400E00CE400E010E400E00D
:100BB00014E400E018E400E01CE400E020E400E0BD
:100BC00024E400E028E400E02CE400E030E400E06D
:100BD00034E400E038E400E03CE400E040E400E01D
:100BE00044E400E048E400E04CE400E050E400E0CD
:100BF00054E400E058E400E05CE400E060E400E07D
:100C000064E400E068E400E06CE400E070E400E02C
:100C100074E400E078E400E07CE400E080E400E0DC
:100C200084E400E088E400E000E100E004E100E0AA
:100C300008E100E00CE100E010E100E080E100E00C
:100C400084E100E088E100E08CE100E090E100E078
:100C500000E200E004E200E008E200E00CE200E074
:100C600010E200E080E200E084E200E088E200E0E0
:100C70008CE200E090E200E0980C00000000002010
:100C80006C060000C4020000A80C00006C060020E6
:100C9000640200000003000001FF01FF01FF01FFEB
:080CA00001FF01FF01790000D2
:040000050000026D88
:00000001FF
