:020000040000FA
:10000000600200206D0200008102000083020000F7
:10001000850200008502000085020000000000004B
:100020000000000000000000000000008502000049
:10003000850200000000000085020000850200002B
:100040008502000085020000850200008502000094
:100050008502000085020000850200008502000084
:100060008502000085020000850200008502000074
:100070008502000085020000850200008502000064
:100080008502000085020000850200008502000054
:100090008502000085020000850200008502000044
:1000A0008502000085020000850200008502000034
:1000B0008502000085020000850200008502000024
:1000C0008502000085020000850200008502000014
:1000D0008502000085020000850200008502000004
:1000E0008502000000000000000000008502000002
:1000F00085020000850200008502000085020000E4
:1001000085020000850200008502000085020000D3
:1001100000000000000000008502000085020000D1
:1001200085020000850200008502000085020000B3
:1001300085020000850200008502000085020000A3
:1001400000000000000000000000000000000000AF
:100150008502000085020000850200008502000083
:10016000000000000000000000000000000000008F
:10017000000000000000000000000000000000007F
:10018000000000000000000000000000000000006F
:10019000000000000000000000000000000000005F
:1001A000000000000000000000000000000000004F
:1001B0008502000085020000850200008502000023
:1001C0008502000085020000850200008502000013
:1001D0008502000085020000850200008502000003
:1001E000850200008502000085020000000000007A
:1001F000000000008502000085020000850200006A
:1002000085020000850200000000000000000000E0
:1002100085020000850200008502000085020000C2
:1002200085020000850200008502000085020000B2
:1002300085020000850200008502000085020000A2
:100240008502000085020000850200008502000092
:100250008502000085020000850200008502000082
:100260008502000085020000850200004EF68850DD
:10027000CEF20000016841F47001016000F004B8A2
:10028000FEE7FEE7FEE7000000F002F800F02EF8BF
:100290000AA090E8000C82448344AAF10107DA45E1
:1002A00001D100F023F8AFF2090EBAE80F0013F005
:1002B000010F18BFFB1A43F0010318473006000076
:1002C000400600000023002400250026103A28BF25
:1002D00078C1FBD8520728BF30C148BF0B607047B8
:1002E0001FB500F0FDFA1FBD10B510BD00F021F8DC
:1002F0001146FFF7F5FF00F099FA00F03FF803B45C
:10030000FFF7F2FF03BC00F047F800000138FDD111
:100310007047000002480349014A034B7047000040
:1003200060000020600200206000002070477047DD
:100330007047754600F02CF8AE46050069465346F6
:1003400020F00700854618B020B5FFF7E3FFBDE8B1
:1003500020404FF000064FF000074FF000084FF02C
:10036000000B21F00701AC46ACE8C009ACE8C009BD
:10037000ACE8C009ACE8C0098D46704710B504462A
:10038000AFF300802046BDE81040FFF7B8BF000083
:10039000004870470000002001491820ABBEFEE76E
:1003A000260002007047012202FA01F1C160704785
:1003B00032B1C0684FF0011202FA01F108407047F3
:1003C000406801228A4042F48032104010F4803F9D
:1003D00008BF704740F470204FF4803202FA01F1F8
:1003E000884370470A4601F00F0101236FF30F02A3
:1003F00003FA01F11143826A11438162704730B4FC
:10040000446989004FF00F0C0CFA01FC02F00F0553
:1004100024EA0C048D402C434461046A03F0030376
:1004200024EA0C0C03FA01F14CEA0101016202F02A
:100430000F018B1F032B84BF30BC7047C900C369F9
:100440004FF0300C30390CFA01FC02F0300223EA94
:100450000C0302FA01F11943C16130BC704700EB93
:10046000411000F14001002003E08B6842F8043B9A
:10047000401CCB6813F4807F18BF70470828F4D362
:1004800070470268012303FA01F122EA01010160C9
:1004900070470268012303FA01F1114301607047BC
:1004A00010B400EB4110910050F840CF0F228A4069
:1004B00003F00F042CEA020C8C404CEA040CC0F848
:1004C00000C0D0F818C0C3F303242CEA020C8C40FF
:1004D0004CEA040CC0F818C0D0F804C0C3F30314ED
:1004E0002CEA020C8C404CEA040CC0F804C0D0F892
:1004F0001CC0C3F303542CEA020C8C404CEA040CDD
:10050000C0F81CC013F4702F4FF001040DD0D0F8C8
:1005100014C0C3F302432CEA02028B401A43426127
:10052000026904FA01F1114304E0026904FA01F1DD
:1005300022EA0101016110BC7047D0F8003412F0CA
:10054000010F14BF0B438B43C0F8003412F0020FAD
:10055000D0F8202414BF114322EA0101C0F820146E
:1005600070472DE9F00301264FF0000C0325C2F37C
:10057000411706FA0CF40C4211D0D0F8C48F4FEAA0
:100580004C0405FA04F928EA0908C0F8C48FD0F829
:10059000C48F07FA04F448EA0404C0F8C44F0CF10D
:1005A000010C0CF0FF0CBCF1080FE2D3D0F800C531
:1005B00012F0010F14BF4CEA010C2CEA010CC0F838
:1005C00000C5D0F804C512F0020F14BF4CEA010CAC
:1005D0002CEA010CC0F804C5D0F808C512F0040FCD
:1005E00014BF4CEA010C2CEA010CC0F808C5D0F885
:1005F00018C512F0080F14BF4CEA010C2CEA010CCC
:10060000C0F818C512F0100FD0F83C2514BF0A43EB
:100610008A43C0F83C25D0F80C2513F0010F14BF15
:100620000A438A43C0F80C25D0F8102513F0020FB6
:1006300014BF0A438A43C0F81025D0F8142513F0DC
:10064000040F14BF0A438A43C0F81425D0F81C25B0
:1006500013F0080F14BF0A438A43C0F81C25D0F8D2
:10066000442513F4007F14BF0A438A43C0F844258D
:10067000D0F8402513F4407F14BF0A438A43C0F8E2
:100680004025D0F82825002B0CBF114322EA010198
:10069000C0F82815BDE8F003704730B50C46054694
:1006A0000022FFF74AFF21462846BDE830400023DC
:1006B0000122FFF756BF0000434B30B4196E1A6F8A
:1006C00021F4800141F4006142F4006419661C6762
:1006D00021EA000212F0010F14D060F00102114073
:1006E0009A159A651966D3F850C0D2021CF4807F1F
:1006F00008D1521E04BF30BC7047D3F850C01CF460
:10070000807FF6D021F4FE6100F4FE621143DFF831
:10071000BCC024F0700222F0004200EA0C0C4CEA4B
:10072000020200F0080C42EACC0219661A6700F4D3
:10073000005C21F4005122F400524CEA01014CEA21
:1007400002024FF0400CC3F858C012F0004F08BF2F
:1007500019661A6718BF196621F00101DFF870C029
:1007600021F0F86100EA0C0C4CEA010122F0FC5285
:1007700000F0FC5C4CEA020210F0804F08BF22F04F
:10078000804209D0DFF84CC022F4800200EA0C0C51
:1007900041F480014CEA020210F4006F08BF4FF4EC
:1007A00000400AD1D3F868C11CF0010F01D1401EEE
:1007B000F8D121F4006122F4006219661A6730BC96
:1007C0001020FFF7A3BD000000E00F4030000080C4
:1007D0000100C00700004040C0F307230749C0B232
:1007E000194401F07043C1F3130143EA411141EA96
:1007F000800040F0007001220260704700E60F4068
:10080000C0F307220849C0B2114401F07042C1F39D
:10081000130142EA411141EA800040F00070006893
:10082000002818BF0120704700EA0F401FB5274875
:10083000FFF742FF2648FFF7CFFF0F212548FFF7BC
:100840002CFF254C2046FFF7C7FF2046FFF7D8FFB7
:100850000028FAD0214C01212046FFF712FE002388
:100860001A4601212046FFF7CAFD00231A4601213E
:100870002046FFF715FE01231A4619462046FFF7CA
:100880000FFE02231A4601212046FFF709FE6323CB
:10089000032201212046FFF703FE01212046FFF736
:1008A000F8FD01212046FFF77EFD01212046FFF7DC
:1008B00099FD002201212046FFF77AFD0028F8D09B
:1008C0006A4601212046FFF7CAFDEAE740054002DB
:1008D000040800F000400240003800F000800340AF
:1008E0004FF04070E1EE100A70470000FC08000075
:0C08F0000000002060020000C4020000B4
:040000050000026D88
:00000001FF
